:100000000C9434000C943E000C943E000C943E0082
:100010000C943E000C943E000C943E000C943E0068
:100020000C943E000C943E000C943E000C943E0058
:100030000C943E000C943E000C943E000C943E0048
:100040000C943E000C943E000C943E000C943E0038
:100050000C943E000C943E000C943E000C943E0028
:100060000C943E000C943E0011241FBECFEFD8E04C
:10007000DEBFCDBF0E9440000C945E000C940000D7
:1000800014B886E085B980E48AB981E884BD83E04C
:1000900085BD20E830E24FEF83B193B18270947058
:1000A000892B11F447BDF8CF199902C037BDF4CFA1
:1000B0001A9902C027BDF0CF17BCEECFF894FFCF3E
:00000001FF
